0302                     20024SOFTWELLVersiondémoSOFTW000001                          0005 05003013776                                               00008      
0602              BQ2 00000001FIRM&ARCHITECTURE       SGM                             01377           0000000010000000Achat conso                    05003      
0702              BQ2 00000001FIRM&ARCHITECTURE       SGM                             01377           0000000000000000mmables inf                    05003      
0602              BQ2 00000002TELMA MOBILE SA         BNI ZENITH ANK                  00007140682101000000000015000000Abonnement                     00005      
0702              BQ2 00000002TELMA MOBILE SA         BNI ZENITH ANK                  00007140682101000000000000000000Internet                       00005      
0602              BQ2 00000003FIRM&ARCHITECTURE       SGM                             01377           0000000010000000Achat conso                    05003      
0702              BQ2 00000003FIRM&ARCHITECTURE       SGM                             01377           0000000000000000mmables inf                    05003      
0602              BQ2 00000004TELMA MOBILE SA         BNI ZENITH ANK                  00007140682101000000000015000000Abonnement                     00005      
0702              BQ2 00000004TELMA MOBILE SA         BNI ZENITH ANK                  00007140682101000000000000000000Internet                       00005      
0802                                                                                                  0000000050000000                                          