0302                     14034SOFTWELLVersiondémoSOFTW000008                               24171790031                                                          
0602              jrnl00000014S.M.O.I ABC Construction                                10000           0000000001000000BRTESTBRTES                    18921      
0702              jrnl00000014S.M.O.I ABC Construction                                10000           0000000000000000T                              18921      
0602              jrnl00000015AEQUO.MG SARL                                           68000           0000000015000000OPTESTPaiem                    22227      
0702              jrnl00000015AEQUO.MG SARL                                           68000           0000000000000000ent Eau et                     22227      
0602              jrnl00000016S.M.O.I ABC Construction                                10000           0000000001000000BRTESTBRTES                    18921      
0702              jrnl00000016S.M.O.I ABC Construction                                10000           0000000000000000T                              18921      
0602              jrnl00000017AEQUO.MG SARL                                           68000           0000000015000000OPTESTPaiem                    22227      
0702              jrnl00000017AEQUO.MG SARL                                           68000           0000000000000000ent Eau et                     22227      
0802                                                                                                  0000000032000000                                          