0302                     24034SOFTWELLVersiondémoSOFTW000011                          0000774097130002                                               00005      
0602              510100000046EA TRADING              BFV SG MADAGAS                  00015020010094190000000005000000LIQUIDATION                    00008      
0702              510100000046EA TRADING              BFV SG MADAGAS                  00015020010094190000000000000000 MULTI-LIGN                    00008      
0602              510100000047EA TRADING              BFV SG MADAGAS                  00015020010094190000000005000000LIQUIDATION                    00008      
0702              510100000047EA TRADING              BFV SG MADAGAS                  00015020010094190000000000000000 MULTI-LIGN                    00008      
0602              510100000048EA TRADING              BFV SG MADAGAS                  00015020010094190000000005000000LIQUIDATION                    00008      
0702              510100000048EA TRADING              BFV SG MADAGAS                  00015020010094190000000000000000 MULTI-LIGN                    00008      
0802                                                                                                  0000000015000000                                          