0302                     14034SOFTWELLVersiondémoSOFTW000010                               24171790031                                                          
0602              jrnl00000020RAZAFIDONA Kasmaly Abdor                                10000           0000000052500000AV0002AV000                    18921      
0702              jrnl00000020RAZAFIDONA Kasmaly Abdor                                10000           00000000000000002                              18921      
0602              jrnl00000021S.M.O.I ABC Construction                                10000           0000000001000000BRTESTBRTES                    18921      
0702              jrnl00000021S.M.O.I ABC Construction                                10000           0000000000000000T                              18921      
0802                                                                                                  0000000053500000                                          