0302                     14054SOFTWELLVersiondémoSOFTW000037                          0720023172790005                                               00009      
0602              BBOA00000051RAKOTOARISON Fanomezants                                00470050012088730000000025000000AV0006AV0006                  00008      
0602              BBOA00000052RAKOTOARISON Fanomezants                                004700500120887300000005450000000002Prestation de service de  00008      
0602              BBOA00000053S.M.O.I ABC Construction                                07000189211000020000000001000000BRTESTBRTEST                  00009      
0602              BBOA00000054S.M.O.I ABC Construction                                07000189211000020000000010000000OP0001test2                   00009      
0802                                                                                                  0000000581000000                                          