0302                     14034SOFTWELLVersiondémoSOFTW000007                               24171790031                                                          
0602              jrnl00000010S.M.O.I ABC Construction                                10000           0000000001000000BRTESTBRTES                    18921      
0702              jrnl00000010S.M.O.I ABC Construction                                10000           0000000000000000T                              18921      
0602              jrnl00000011AEQUO.MG SARL                                           68000           0000000015000000OPTESTPaiem                    22227      
0702              jrnl00000011AEQUO.MG SARL                                           68000           0000000000000000ent Eau et                     22227      
0602              jrnl00000012S.M.O.I ABC Construction                                10000           0000000001000000BRTESTBRTES                    18921      
0702              jrnl00000012S.M.O.I ABC Construction                                10000           0000000000000000T                              18921      
0602              jrnl00000013AEQUO.MG SARL                                           68000           0000000015000000OPTESTPaiem                    22227      
0702              jrnl00000013AEQUO.MG SARL                                           68000           0000000000000000ent Eau et                     22227      
0802                                                                                                  0000000032000000                                          